{
  "contractName": "Gaming",
  "abi": [
    {
      "inputs": [],
      "payable": true,
      "stateMutability": "payable",
      "type": "constructor"
    },
    {
      "anonymous": false,
      "inputs": [
        {
          "indexed": false,
          "internalType": "address",
          "name": "funder",
          "type": "address"
        },
        {
          "indexed": false,
          "internalType": "uint256",
          "name": "amount",
          "type": "uint256"
        }
      ],
      "name": "GameFunded",
      "type": "event"
    },
    {
      "anonymous": false,
      "inputs": [
        {
          "indexed": false,
          "internalType": "address",
          "name": "player",
          "type": "address"
        },
        {
          "indexed": false,
          "internalType": "uint256",
          "name": "amount",
          "type": "uint256"
        },
        {
          "indexed": false,
          "internalType": "uint256",
          "name": "mysteryNumber",
          "type": "uint256"
        },
        {
          "indexed": false,
          "internalType": "uint256",
          "name": "displayedNumber",
          "type": "uint256"
        }
      ],
      "name": "PlayerLost",
      "type": "event"
    },
    {
      "anonymous": false,
      "inputs": [
        {
          "indexed": false,
          "internalType": "address",
          "name": "player",
          "type": "address"
        },
        {
          "indexed": false,
          "internalType": "uint256",
          "name": "amount",
          "type": "uint256"
        },
        {
          "indexed": false,
          "internalType": "uint256",
          "name": "mysteryNumber",
          "type": "uint256"
        },
        {
          "indexed": false,
          "internalType": "uint256",
          "name": "displayedNumber",
          "type": "uint256"
        }
      ],
      "name": "PlayerWon",
      "type": "event"
    },
    {
      "payable": true,
      "stateMutability": "payable",
      "type": "fallback"
    },
    {
      "constant": true,
      "inputs": [],
      "name": "losses",
      "outputs": [
        {
          "internalType": "uint256",
          "name": "",
          "type": "uint256"
        }
      ],
      "payable": false,
      "stateMutability": "view",
      "type": "function"
    },
    {
      "constant": true,
      "inputs": [],
      "name": "owner",
      "outputs": [
        {
          "internalType": "address",
          "name": "",
          "type": "address"
        }
      ],
      "payable": false,
      "stateMutability": "view",
      "type": "function"
    },
    {
      "constant": true,
      "inputs": [
        {
          "internalType": "address",
          "name": "",
          "type": "address"
        }
      ],
      "name": "players",
      "outputs": [
        {
          "internalType": "address",
          "name": "player",
          "type": "address"
        },
        {
          "internalType": "string",
          "name": "playerName",
          "type": "string"
        },
        {
          "internalType": "uint256",
          "name": "playerBalance",
          "type": "uint256"
        },
        {
          "internalType": "uint256",
          "name": "wins",
          "type": "uint256"
        },
        {
          "internalType": "uint256",
          "name": "losses",
          "type": "uint256"
        }
      ],
      "payable": false,
      "stateMutability": "view",
      "type": "function"
    },
    {
      "constant": true,
      "inputs": [],
      "name": "wins",
      "outputs": [
        {
          "internalType": "uint256",
          "name": "",
          "type": "uint256"
        }
      ],
      "payable": false,
      "stateMutability": "view",
      "type": "function"
    },
    {
      "constant": true,
      "inputs": [],
      "name": "getOnline",
      "outputs": [
        {
          "internalType": "bool",
          "name": "",
          "type": "bool"
        }
      ],
      "payable": false,
      "stateMutability": "view",
      "type": "function"
    },
    {
      "constant": true,
      "inputs": [
        {
          "internalType": "uint256",
          "name": "number",
          "type": "uint256"
        },
        {
          "internalType": "uint256",
          "name": "display",
          "type": "uint256"
        },
        {
          "internalType": "bool",
          "name": "guess",
          "type": "bool"
        }
      ],
      "name": "determineWinner",
      "outputs": [
        {
          "internalType": "bool",
          "name": "",
          "type": "bool"
        }
      ],
      "payable": false,
      "stateMutability": "pure",
      "type": "function"
    },
    {
      "constant": false,
      "inputs": [
        {
          "internalType": "uint256",
          "name": "display",
          "type": "uint256"
        },
        {
          "internalType": "bool",
          "name": "guess",
          "type": "bool"
        }
      ],
      "name": "winOrLose",
      "outputs": [
        {
          "internalType": "bool",
          "name": "",
          "type": "bool"
        }
      ],
      "payable": true,
      "stateMutability": "payable",
      "type": "function"
    },
    {
      "constant": false,
      "inputs": [],
      "name": "withdrawFunds",
      "outputs": [],
      "payable": false,
      "stateMutability": "nonpayable",
      "type": "function"
    },
    {
      "constant": false,
      "inputs": [],
      "name": "fundGame",
      "outputs": [],
      "payable": true,
      "stateMutability": "payable",
      "type": "function"
    },
    {
      "constant": false,
      "inputs": [],
      "name": "sendCoin",
      "outputs": [],
      "payable": true,
      "stateMutability": "payable",
      "type": "function"
    }
  ],
  "bytecode": "0x6080604052336000806101000a81548173ffffffffffffffffffffffffffffffffffffffff021916908373ffffffffffffffffffffffffffffffffffffffff1602179055506001600060146101000a81548160ff0219169083151502179055506040518060a001604052803373ffffffffffffffffffffffffffffffffffffffff1681526020016040518060400160405280600b81526020017f5465737420506c61796572000000000000000000000000000000000000000000815250815260200160008152602001600181526020016002815250600160008073ffffffffffffffffffffffffffffffffffffffff1673ffffffffffffffffffffffffffffffffffffffff16815260200190815260200160002060008201518160000160006101000a81548173ffffffffffffffffffffffffffffffffffffffff021916908373ffffffffffffffffffffffffffffffffffffffff160217905550602082015181600101908051906020019061017692919061019d565b50604082015181600201556060820151816003015560808201518160040155905050610242565b828054600181600116156101000203166002900490600052602060002090601f016020900481019282601f106101de57805160ff191683800117855561020c565b8280016001018555821561020c579182015b8281111561020b5782518255916020019190600101906101f0565b5b509050610219919061021d565b5090565b61023f91905b8082111561023b576000816000905550600101610223565b5090565b90565b6108ad806102516000396000f3fe6080604052600436106100915760003560e01c80638da5cb5b116100595780638da5cb5b14610198578063c621fe97146101ef578063e169bf6c146101f9578063e2eb41ff14610203578063fc541ef31461031557610091565b8063171273a51461009357806324600fc3146100fc57806324de908d1461011357806364693b871461013e5780636f22d6a51461016d575b005b34801561009f57600080fd5b506100e2600480360360608110156100b657600080fd5b810190808035906020019092919080359060200190929190803515159060200190929190505050610367565b604051808215151515815260200191505060405180910390f35b34801561010857600080fd5b506101116103b4565b005b34801561011f57600080fd5b506101286104a2565b6040518082815260200191505060405180910390f35b34801561014a57600080fd5b506101536104a8565b604051808215151515815260200191505060405180910390f35b34801561017957600080fd5b506101826104be565b6040518082815260200191505060405180910390f35b3480156101a457600080fd5b506101ad6104c4565b604051808273ffffffffffffffffffffffffffffffffffffffff1673ffffffffffffffffffffffffffffffffffffffff16815260200191505060405180910390f35b6101f76104e9565b005b6102016104eb565b005b34801561020f57600080fd5b506102526004803603602081101561022657600080fd5b81019080803573ffffffffffffffffffffffffffffffffffffffff1690602001909291905050506105fd565b604051808673ffffffffffffffffffffffffffffffffffffffff1673ffffffffffffffffffffffffffffffffffffffff16815260200180602001858152602001848152602001838152602001828103825286818151815260200191508051906020019080838360005b838110156102d65780820151818401526020810190506102bb565b50505050905090810190601f1680156103035780820380516001836020036101000a031916815260200191505b50965050505050505060405180910390f35b61034d6004803603604081101561032b57600080fd5b81019080803590602001909291908035151590602001909291905050506106eb565b604051808215151515815260200191505060405180910390f35b600060011515821515141561038c578284111561038757600190506103ad565b6103ac565b6000151582151514156103ab57828411156103aa57600090506103ad565b5b5b5b9392505050565b6000809054906101000a900473ffffffffffffffffffffffffffffffffffffffff1673ffffffffffffffffffffffffffffffffffffffff163373ffffffffffffffffffffffffffffffffffffffff1614610459576040517f08c379a00000000000000000000000000000000000000000000000000000000081526004018080602001828103825260218152602001806108586021913960400191505060405180910390fd5b3373ffffffffffffffffffffffffffffffffffffffff166108fc479081150290604051600060405180830381858888f1935050505015801561049f573d6000803e3d6000fd5b50565b60025481565b60008060149054906101000a900460ff16905090565b60035481565b6000809054906101000a900473ffffffffffffffffffffffffffffffffffffffff1681565b565b6000809054906101000a900473ffffffffffffffffffffffffffffffffffffffff1673ffffffffffffffffffffffffffffffffffffffff163373ffffffffffffffffffffffffffffffffffffffff1614610590576040517f08c379a00000000000000000000000000000000000000000000000000000000081526004018080602001828103825260218152602001806108586021913960400191505060405180910390fd5b7f5c963fd7fde519af29d56159e6e3e18db4e5d3e4716c39c87958cf9e4862ed583334604051808373ffffffffffffffffffffffffffffffffffffffff1673ffffffffffffffffffffffffffffffffffffffff1681526020018281526020019250505060405180910390a1565b60016020528060005260406000206000915090508060000160009054906101000a900473ffffffffffffffffffffffffffffffffffffffff1690806001018054600181600116156101000203166002900480601f0160208091040260200160405190810160405280929190818152602001828054600181600116156101000203166002900480156106cf5780601f106106a4576101008083540402835291602001916106cf565b820191906000526020600020905b8154815290600101906020018083116106b257829003601f168201915b5050505050908060020154908060030154908060040154905085565b600060011515600060149054906101000a900460ff1615151461070d57600080fd5b60013373ffffffffffffffffffffffffffffffffffffffff16311161079a576040517f08c379a00000000000000000000000000000000000000000000000000000000081526004018080602001828103825260128152602001807f496e73756666696369656e742066756e6473000000000000000000000000000081525060200191505060405180910390fd5b60006107a4610836565b905060006107b3828686610367565b9050600115158115151415610815573373ffffffffffffffffffffffffffffffffffffffff166108fc60029081150290604051600060405180830381858888f19350505050158015610809573d6000803e3d6000fd5b50600192505050610830565b60001515811515141561082d57600092505050610830565b50505b92915050565b6000806001600a600143034060001c8161084c57fe5b06019050809150509056fe4f6e6c79206f776e65722063616e2063616c6c20746869732066756e6374696f6ea265627a7a723158205ce8ec92fdb487ce005392c10e7245eef6561619f3f3646800d6c506dea9086564736f6c63430005100032",
  "source": "pragma solidity 0.5.16;\n\ncontract Gaming {\n    /* Our Online gaming contract */\n    address public owner;\n    bool online;\n\n \n    mapping (address => Player) public players; \n    uint public wins;    /* public didnt allow me any advantage */\n    uint public losses;\n \n    struct Player {\n        address player;\n        string playerName;\n        uint playerBalance;\n        uint wins;\n        uint losses;\n    }\n\n    constructor() public payable {\n        owner = msg.sender;\n        online = true;\n        players[address(0)] = Player(msg.sender, \"Test Player\", 0, 1, 2);\n    }\n\n    modifier isOwner() {\n        require(msg.sender == owner, \"Only owner can call this function\");\n        _;\n    }\n\n    event PlayerWon(address player, uint amount, uint mysteryNumber, uint displayedNumber);\n    event PlayerLost(address player, uint amount, uint mysteryNumber, uint displayedNumber);\n\n    event GameFunded(address funder, uint amount);\n    \n\n    function getOnline() external view returns ( bool ){\n\treturn online;\n    }\n\n\n    function mysteryNumber() internal view returns (uint) {\n        uint randomNumber = uint(blockhash(block.number-1))%10 + 1;\n        return randomNumber;\n    }\n\n    function determineWinner(uint number, uint display, bool guess) public pure returns (bool) {\n        if (guess == true) {\n            if (number > display) {\n                return true;\n            }\n        } else if (guess == false) {\n            if (number > display) {\n                return false;\n            }\n        }\n    }\n// Here the 'bool guess' as 'true' states that the mystery number\n// is higher than my displayed number\n\n// Here the 'bool guess' as 'false' states that the mystery number\n// is lower than my displayed number\n\n\n// the 'sender' could in this case be the 'owner'\n// how to obtain the contract balance in the console?\n\n\n    function winOrLose(uint display, bool guess) external payable returns (bool) {\n        /* Use true for a higher guess, false for a lower guess */\n        require(online == true);\n        // just to simplify for our test....\n        //msg.value = 1;\n\t// the 'leading' send is invoked by the application\n\t//msg.value is replaced with 1\n\n        require(msg.sender.balance > 1, \"Insufficient funds\");\n        uint mysteryNumber_ = mysteryNumber();\n        bool isWinner = determineWinner(mysteryNumber_, display, guess);\n        if (isWinner == true) {\n            /* Player won */\n            // msg.value is replaced with 1\n\t    msg.sender.transfer(1 * 2); // return the amount wagered plus the ether sent with the transaction\n            return true;\n        } else if (isWinner == false) {\n            /* Player lost .... they already send the money to contract  */\n            /*  in the case of a loss.... it stays in the conract !!!!!! */\n            /* no need to delete / send  */\n            return false;\n        }\n    }\n\n\n    function withdrawFunds() public isOwner {\n        msg.sender.transfer(address(this).balance);\n    }\n\n    function fundGame() public isOwner payable {\n        emit GameFunded(msg.sender, msg.value);\n    }\n    function sendCoin() public payable {\n}\n\n    function() external payable {\n    }\n\n\n\n\n}\n\n",
  "sourcePath": "/home/ubuntu/packt/contracts/Gaming.sol",
  "compiler": {
    "name": "solc",
    "version": "0.5.16+commit.9c3226ce.Emscripten.clang"
  },
  "schemaVersion": "3.2.3",
  "updatedAt": "2022-12-19T02:45:48.962Z",
  "networkType": "ethereum",
  "devdoc": {
    "methods": {}
  },
  "userdoc": {
    "methods": {}
  }
}