{
  "contractName": "Gaming",
  "abi": [
    {
      "inputs": [],
      "payable": true,
      "stateMutability": "payable",
      "type": "constructor"
    },
    {
      "constant": true,
      "inputs": [],
      "name": "losses",
      "outputs": [
        {
          "internalType": "uint256",
          "name": "",
          "type": "uint256"
        }
      ],
      "payable": false,
      "stateMutability": "view",
      "type": "function"
    },
    {
      "constant": true,
      "inputs": [],
      "name": "owner",
      "outputs": [
        {
          "internalType": "address",
          "name": "",
          "type": "address"
        }
      ],
      "payable": false,
      "stateMutability": "view",
      "type": "function"
    },
    {
      "constant": true,
      "inputs": [
        {
          "internalType": "address",
          "name": "",
          "type": "address"
        }
      ],
      "name": "players",
      "outputs": [
        {
          "internalType": "address",
          "name": "player",
          "type": "address"
        },
        {
          "internalType": "string",
          "name": "playerName",
          "type": "string"
        },
        {
          "internalType": "uint256",
          "name": "playerBalance",
          "type": "uint256"
        },
        {
          "internalType": "uint256",
          "name": "wins",
          "type": "uint256"
        },
        {
          "internalType": "uint256",
          "name": "losses",
          "type": "uint256"
        }
      ],
      "payable": false,
      "stateMutability": "view",
      "type": "function"
    },
    {
      "constant": true,
      "inputs": [],
      "name": "wins",
      "outputs": [
        {
          "internalType": "uint256",
          "name": "",
          "type": "uint256"
        }
      ],
      "payable": false,
      "stateMutability": "view",
      "type": "function"
    },
    {
      "constant": true,
      "inputs": [],
      "name": "getOnline",
      "outputs": [
        {
          "internalType": "bool",
          "name": "",
          "type": "bool"
        }
      ],
      "payable": false,
      "stateMutability": "view",
      "type": "function"
    },
    {
      "constant": true,
      "inputs": [
        {
          "internalType": "uint256",
          "name": "number",
          "type": "uint256"
        },
        {
          "internalType": "uint256",
          "name": "display",
          "type": "uint256"
        },
        {
          "internalType": "bool",
          "name": "guess",
          "type": "bool"
        }
      ],
      "name": "determineWinner",
      "outputs": [
        {
          "internalType": "bool",
          "name": "",
          "type": "bool"
        }
      ],
      "payable": false,
      "stateMutability": "pure",
      "type": "function"
    },
    {
      "constant": false,
      "inputs": [
        {
          "internalType": "uint256",
          "name": "display",
          "type": "uint256"
        },
        {
          "internalType": "bool",
          "name": "guess",
          "type": "bool"
        },
        {
          "internalType": "uint256",
          "name": "wager",
          "type": "uint256"
        }
      ],
      "name": "winOrLose",
      "outputs": [
        {
          "internalType": "bool",
          "name": "",
          "type": "bool"
        }
      ],
      "payable": true,
      "stateMutability": "payable",
      "type": "function"
    }
  ],
  "bytecode": "0x6080604052336000806101000a81548173ffffffffffffffffffffffffffffffffffffffff021916908373ffffffffffffffffffffffffffffffffffffffff1602179055506001600060146101000a81548160ff0219169083151502179055506040518060a001604052803373ffffffffffffffffffffffffffffffffffffffff1681526020016040518060400160405280600b81526020017f5465737420506c61796572000000000000000000000000000000000000000000815250815260200160008152602001600181526020016002815250600160008073ffffffffffffffffffffffffffffffffffffffff1673ffffffffffffffffffffffffffffffffffffffff16815260200190815260200160002060008201518160000160006101000a81548173ffffffffffffffffffffffffffffffffffffffff021916908373ffffffffffffffffffffffffffffffffffffffff160217905550602082015181600101908051906020019061017692919061019d565b50604082015181600201556060820151816003015560808201518160040155905050610242565b828054600181600116156101000203166002900490600052602060002090601f016020900481019282601f106101de57805160ff191683800117855561020c565b8280016001018555821561020c579182015b8281111561020b5782518255916020019190600101906101f0565b5b509050610219919061021d565b5090565b61023f91905b8082111561023b576000816000905550600101610223565b5090565b90565b61064d806102516000396000f3fe6080604052600436106100705760003560e01c80636f22d6a51161004e5780636f22d6a5146101385780638da5cb5b14610163578063c3488937146101ba578063e2eb41ff1461021657610070565b8063171273a51461007557806324de908d146100de57806364693b8714610109575b600080fd5b34801561008157600080fd5b506100c46004803603606081101561009857600080fd5b810190808035906020019092919080359060200190929190803515159060200190929190505050610328565b604051808215151515815260200191505060405180910390f35b3480156100ea57600080fd5b506100f3610375565b6040518082815260200191505060405180910390f35b34801561011557600080fd5b5061011e61037b565b604051808215151515815260200191505060405180910390f35b34801561014457600080fd5b5061014d610391565b6040518082815260200191505060405180910390f35b34801561016f57600080fd5b50610178610397565b604051808273ffffffffffffffffffffffffffffffffffffffff1673ffffffffffffffffffffffffffffffffffffffff16815260200191505060405180910390f35b6101fc600480360360608110156101d057600080fd5b8101908080359060200190929190803515159060200190929190803590602001909291905050506103bc565b604051808215151515815260200191505060405180910390f35b34801561022257600080fd5b506102656004803603602081101561023957600080fd5b81019080803573ffffffffffffffffffffffffffffffffffffffff169060200190929190505050610509565b604051808673ffffffffffffffffffffffffffffffffffffffff1673ffffffffffffffffffffffffffffffffffffffff16815260200180602001858152602001848152602001838152602001828103825286818151815260200191508051906020019080838360005b838110156102e95780820151818401526020810190506102ce565b50505050905090810190601f1680156103165780820380516001836020036101000a031916815260200191505b50965050505050505060405180910390f35b600060011515821515141561034d5782841115610348576001905061036e565b61036d565b60001515821515141561036c578284111561036b576000905061036e565b5b5b5b9392505050565b60025481565b60008060149054906101000a900460ff16905090565b60035481565b6000809054906101000a900473ffffffffffffffffffffffffffffffffffffffff1681565b600060011515600060149054906101000a900460ff161515146103de57600080fd5b343373ffffffffffffffffffffffffffffffffffffffff16311161046a576040517f08c379a00000000000000000000000000000000000000000000000000000000081526004018080602001828103825260128152602001807f496e73756666696369656e742066756e6473000000000000000000000000000081525060200191505060405180910390fd5b60006104746105f7565b90506000610483828787610328565b90506001151581151514156104e7573373ffffffffffffffffffffffffffffffffffffffff166108fc600286029081150290604051600060405180830381858888f193505050501580156104db573d6000803e3d6000fd5b50600192505050610502565b6000151581151514156104ff57600092505050610502565b50505b9392505050565b60016020528060005260406000206000915090508060000160009054906101000a900473ffffffffffffffffffffffffffffffffffffffff1690806001018054600181600116156101000203166002900480601f0160208091040260200160405190810160405280929190818152602001828054600181600116156101000203166002900480156105db5780601f106105b0576101008083540402835291602001916105db565b820191906000526020600020905b8154815290600101906020018083116105be57829003601f168201915b5050505050908060020154908060030154908060040154905085565b6000806001600a600143034060001c8161060d57fe5b06019050809150509056fea265627a7a72315820669a2d13e9a1870c40e0fcaf0b3ce68383bc7ec9dfe40cc9a48960ff2ee3d62464736f6c63430005100032",
  "source": "pragma solidity 0.5.16;\n\ncontract Gaming {\n    /* Our Online gaming contract */\n    address public owner;\n    bool online;\n\n \n    mapping (address => Player) public players; \n    uint public wins;    /* public didnt allow me any advantage */\n    uint public losses;\n \n    struct Player {\n        address player;\n        string playerName;\n        uint playerBalance;\n        uint wins;\n        uint losses;\n    }\n\n    constructor() public payable {\n        owner = msg.sender;\n        online = true;\n        players[address(0)] = Player(msg.sender, \"Test Player\", 0, 1, 2);\n    }\n\n    function getOnline() external view returns ( bool ){\n\treturn online;\n    }\n\n\n    function mysteryNumber() internal view returns (uint) {\n        uint randomNumber = uint(blockhash(block.number-1))%10 + 1;\n        return randomNumber;\n    }\n\n    function determineWinner(uint number, uint display, bool guess) public pure returns (bool) {\n        if (guess == true) {\n            if (number > display) {\n                return true;\n            }\n        } else if (guess == false) {\n            if (number > display) {\n                return false;\n            }\n        }\n    }\n\n    function winOrLose(uint display, bool guess, uint wager) external payable returns (bool) {\n        /* Use true for a higher guess, false for a lower guess */\n        require(online == true);\n        require(msg.sender.balance > msg.value, \"Insufficient funds\");\n        uint mysteryNumber_ = mysteryNumber();\n        bool isWinner = determineWinner(mysteryNumber_, display, guess);\n        if (isWinner == true) {\n            /* Player won */\n            msg.sender.transfer(wager * 2); // return the amount wagered plus the ether sent with the transaction\n            return true;\n        } else if (isWinner == false) {\n            /* Player lost */\n            return false;\n        }\n    }\n}\n\n",
  "sourcePath": "/home/ubuntu/packt/contracts/Gaming.sol",
  "compiler": {
    "name": "solc",
    "version": "0.5.16+commit.9c3226ce.Emscripten.clang"
  },
  "schemaVersion": "3.2.3",
  "updatedAt": "2022-12-15T21:39:12.661Z",
  "networkType": "ethereum",
  "devdoc": {
    "methods": {}
  },
  "userdoc": {
    "methods": {}
  }
}