{
  "contractName": "Gaming",
  "abi": [
    {
      "inputs": [],
      "payable": true,
      "stateMutability": "payable",
      "type": "constructor"
    },
    {
      "anonymous": false,
      "inputs": [
        {
          "indexed": false,
          "internalType": "address",
          "name": "funder",
          "type": "address"
        },
        {
          "indexed": false,
          "internalType": "uint256",
          "name": "amount",
          "type": "uint256"
        }
      ],
      "name": "GameFunded",
      "type": "event"
    },
    {
      "anonymous": false,
      "inputs": [
        {
          "indexed": false,
          "internalType": "address",
          "name": "player",
          "type": "address"
        },
        {
          "indexed": false,
          "internalType": "uint256",
          "name": "amount",
          "type": "uint256"
        },
        {
          "indexed": false,
          "internalType": "uint256",
          "name": "mysteryNumber",
          "type": "uint256"
        },
        {
          "indexed": false,
          "internalType": "uint256",
          "name": "displayedNumber",
          "type": "uint256"
        }
      ],
      "name": "PlayerLost",
      "type": "event"
    },
    {
      "anonymous": false,
      "inputs": [
        {
          "indexed": false,
          "internalType": "address",
          "name": "player",
          "type": "address"
        },
        {
          "indexed": false,
          "internalType": "uint256",
          "name": "amount",
          "type": "uint256"
        },
        {
          "indexed": false,
          "internalType": "uint256",
          "name": "mysteryNumber",
          "type": "uint256"
        },
        {
          "indexed": false,
          "internalType": "uint256",
          "name": "displayedNumber",
          "type": "uint256"
        }
      ],
      "name": "PlayerWon",
      "type": "event"
    },
    {
      "constant": true,
      "inputs": [],
      "name": "losses",
      "outputs": [
        {
          "internalType": "uint256",
          "name": "",
          "type": "uint256"
        }
      ],
      "payable": false,
      "stateMutability": "view",
      "type": "function"
    },
    {
      "constant": true,
      "inputs": [],
      "name": "owner",
      "outputs": [
        {
          "internalType": "address",
          "name": "",
          "type": "address"
        }
      ],
      "payable": false,
      "stateMutability": "view",
      "type": "function"
    },
    {
      "constant": true,
      "inputs": [
        {
          "internalType": "address",
          "name": "",
          "type": "address"
        }
      ],
      "name": "players",
      "outputs": [
        {
          "internalType": "address",
          "name": "player",
          "type": "address"
        },
        {
          "internalType": "string",
          "name": "playerName",
          "type": "string"
        },
        {
          "internalType": "uint256",
          "name": "playerBalance",
          "type": "uint256"
        },
        {
          "internalType": "uint256",
          "name": "wins",
          "type": "uint256"
        },
        {
          "internalType": "uint256",
          "name": "losses",
          "type": "uint256"
        }
      ],
      "payable": false,
      "stateMutability": "view",
      "type": "function"
    },
    {
      "constant": true,
      "inputs": [],
      "name": "wins",
      "outputs": [
        {
          "internalType": "uint256",
          "name": "",
          "type": "uint256"
        }
      ],
      "payable": false,
      "stateMutability": "view",
      "type": "function"
    },
    {
      "constant": true,
      "inputs": [],
      "name": "getOnline",
      "outputs": [
        {
          "internalType": "bool",
          "name": "",
          "type": "bool"
        }
      ],
      "payable": false,
      "stateMutability": "view",
      "type": "function"
    },
    {
      "constant": true,
      "inputs": [
        {
          "internalType": "uint256",
          "name": "number",
          "type": "uint256"
        },
        {
          "internalType": "uint256",
          "name": "display",
          "type": "uint256"
        },
        {
          "internalType": "bool",
          "name": "guess",
          "type": "bool"
        }
      ],
      "name": "determineWinner",
      "outputs": [
        {
          "internalType": "bool",
          "name": "",
          "type": "bool"
        }
      ],
      "payable": false,
      "stateMutability": "pure",
      "type": "function"
    },
    {
      "constant": false,
      "inputs": [
        {
          "internalType": "uint256",
          "name": "display",
          "type": "uint256"
        },
        {
          "internalType": "bool",
          "name": "guess",
          "type": "bool"
        }
      ],
      "name": "winOrLose",
      "outputs": [
        {
          "internalType": "bool",
          "name": "",
          "type": "bool"
        }
      ],
      "payable": true,
      "stateMutability": "payable",
      "type": "function"
    },
    {
      "constant": false,
      "inputs": [],
      "name": "withdrawFunds",
      "outputs": [],
      "payable": false,
      "stateMutability": "nonpayable",
      "type": "function"
    },
    {
      "constant": false,
      "inputs": [],
      "name": "fundGame",
      "outputs": [],
      "payable": true,
      "stateMutability": "payable",
      "type": "function"
    },
    {
      "constant": false,
      "inputs": [
        {
          "internalType": "address payable",
          "name": "_to",
          "type": "address"
        }
      ],
      "name": "sftwo",
      "outputs": [],
      "payable": true,
      "stateMutability": "payable",
      "type": "function"
    },
    {
      "constant": false,
      "inputs": [
        {
          "internalType": "address payable",
          "name": "_to",
          "type": "address"
        }
      ],
      "name": "sendToPlayer",
      "outputs": [],
      "payable": true,
      "stateMutability": "payable",
      "type": "function"
    },
    {
      "constant": false,
      "inputs": [],
      "name": "transferFnew",
      "outputs": [],
      "payable": true,
      "stateMutability": "payable",
      "type": "function"
    },
    {
      "constant": false,
      "inputs": [],
      "name": "sendCoin",
      "outputs": [],
      "payable": true,
      "stateMutability": "payable",
      "type": "function"
    }
  ],
  "bytecode": "0x6080604052336000806101000a81548173ffffffffffffffffffffffffffffffffffffffff021916908373ffffffffffffffffffffffffffffffffffffffff1602179055506001600060146101000a81548160ff0219169083151502179055506040518060a001604052803373ffffffffffffffffffffffffffffffffffffffff1681526020016040518060400160405280600b81526020017f5465737420506c61796572000000000000000000000000000000000000000000815250815260200160008152602001600181526020016002815250600160008073ffffffffffffffffffffffffffffffffffffffff1673ffffffffffffffffffffffffffffffffffffffff16815260200190815260200160002060008201518160000160006101000a81548173ffffffffffffffffffffffffffffffffffffffff021916908373ffffffffffffffffffffffffffffffffffffffff160217905550602082015181600101908051906020019061017692919061019d565b50604082015181600201556060820151816003015560808201518160040155905050610242565b828054600181600116156101000203166002900490600052602060002090601f016020900481019282601f106101de57805160ff191683800117855561020c565b8280016001018555821561020c579182015b8281111561020b5782518255916020019190600101906101f0565b5b509050610219919061021d565b5090565b61023f91905b8082111561023b576000816000905550600101610223565b5090565b90565b610bc3806102516000396000f3fe6080604052600436106100c25760003560e01c8063c621fe971161007f578063e2eb41ff11610059578063e2eb41ff14610241578063e304fdcd14610353578063fc541ef314610397578063ffa9f613146103e9576100c2565b8063c621fe9714610223578063d0959a271461022d578063e169bf6c14610237576100c2565b8063171273a5146100c757806324600fc31461013057806324de908d1461014757806364693b87146101725780636f22d6a5146101a15780638da5cb5b146101cc575b600080fd5b3480156100d357600080fd5b50610116600480360360608110156100ea57600080fd5b81019080803590602001909291908035906020019092919080351515906020019092919050505061042d565b604051808215151515815260200191505060405180910390f35b34801561013c57600080fd5b5061014561047a565b005b34801561015357600080fd5b5061015c610568565b6040518082815260200191505060405180910390f35b34801561017e57600080fd5b5061018761056e565b604051808215151515815260200191505060405180910390f35b3480156101ad57600080fd5b506101b6610584565b6040518082815260200191505060405180910390f35b3480156101d857600080fd5b506101e161058a565b604051808273ffffffffffffffffffffffffffffffffffffffff1673ffffffffffffffffffffffffffffffffffffffff16815260200191505060405180910390f35b61022b6105af565b005b6102356105b1565b005b61023f61069f565b005b34801561024d57600080fd5b506102906004803603602081101561026457600080fd5b81019080803573ffffffffffffffffffffffffffffffffffffffff1690602001909291905050506107b1565b604051808673ffffffffffffffffffffffffffffffffffffffff1673ffffffffffffffffffffffffffffffffffffffff16815260200180602001858152602001848152602001838152602001828103825286818151815260200191508051906020019080838360005b838110156103145780820151818401526020810190506102f9565b50505050905090810190601f1680156103415780820380516001836020036101000a031916815260200191505b50965050505050505060405180910390f35b6103956004803603602081101561036957600080fd5b81019080803573ffffffffffffffffffffffffffffffffffffffff16906020019092919050505061089f565b005b6103cf600480360360408110156103ad57600080fd5b810190808035906020019092919080351515906020019092919050505061094f565b604051808215151515815260200191505060405180910390f35b61042b600480360360208110156103ff57600080fd5b81019080803573ffffffffffffffffffffffffffffffffffffffff169060200190929190505050610a9c565b005b6000600115158215151415610452578284111561044d5760019050610473565b610472565b60001515821515141561047157828411156104705760009050610473565b5b5b5b9392505050565b6000809054906101000a900473ffffffffffffffffffffffffffffffffffffffff1673ffffffffffffffffffffffffffffffffffffffff163373ffffffffffffffffffffffffffffffffffffffff161461051f576040517f08c379a0000000000000000000000000000000000000000000000000000000008152600401808060200182810382526021815260200180610b6e6021913960400191505060405180910390fd5b3373ffffffffffffffffffffffffffffffffffffffff166108fc479081150290604051600060405180830381858888f19350505050158015610565573d6000803e3d6000fd5b50565b60025481565b60008060149054906101000a900460ff16905090565b60035481565b6000809054906101000a900473ffffffffffffffffffffffffffffffffffffffff1681565b565b6000809054906101000a900473ffffffffffffffffffffffffffffffffffffffff1673ffffffffffffffffffffffffffffffffffffffff163373ffffffffffffffffffffffffffffffffffffffff1614610656576040517f08c379a0000000000000000000000000000000000000000000000000000000008152600401808060200182810382526021815260200180610b6e6021913960400191505060405180910390fd5b3373ffffffffffffffffffffffffffffffffffffffff166108fc349081150290604051600060405180830381858888f1935050505015801561069c573d6000803e3d6000fd5b50565b6000809054906101000a900473ffffffffffffffffffffffffffffffffffffffff1673ffffffffffffffffffffffffffffffffffffffff163373ffffffffffffffffffffffffffffffffffffffff1614610744576040517f08c379a0000000000000000000000000000000000000000000000000000000008152600401808060200182810382526021815260200180610b6e6021913960400191505060405180910390fd5b7f5c963fd7fde519af29d56159e6e3e18db4e5d3e4716c39c87958cf9e4862ed583334604051808373ffffffffffffffffffffffffffffffffffffffff1673ffffffffffffffffffffffffffffffffffffffff1681526020018281526020019250505060405180910390a1565b60016020528060005260406000206000915090508060000160009054906101000a900473ffffffffffffffffffffffffffffffffffffffff1690806001018054600181600116156101000203166002900480601f0160208091040260200160405190810160405280929190818152602001828054600181600116156101000203166002900480156108835780601f1061085857610100808354040283529160200191610883565b820191906000526020600020905b81548152906001019060200180831161086657829003601f168201915b5050505050908060020154908060030154908060040154905085565b60008173ffffffffffffffffffffffffffffffffffffffff166108fc349081150290604051600060405180830381858888f1935050505090508061094b576040517f08c379a00000000000000000000000000000000000000000000000000000000081526004018080602001828103825260148152602001807f6661696c656420746f2073656e6420657468657200000000000000000000000081525060200191505060405180910390fd5b5050565b600060011515600060149054906101000a900460ff1615151461097157600080fd5b60013373ffffffffffffffffffffffffffffffffffffffff1631116109fe576040517f08c379a00000000000000000000000000000000000000000000000000000000081526004018080602001828103825260128152602001807f496e73756666696369656e742066756e6473000000000000000000000000000081525060200191505060405180910390fd5b6000610a08610b4c565b90506000610a1782868661042d565b9050600115158115151415610a7b573373ffffffffffffffffffffffffffffffffffffffff166108fc600234029081150290604051600060405180830381858888f19350505050158015610a6f573d6000803e3d6000fd5b50600192505050610a96565b600015158115151415610a9357600092505050610a96565b50505b92915050565b60008173ffffffffffffffffffffffffffffffffffffffff166108fc349081150290604051600060405180830381858888f19350505050905080610b48576040517f08c379a00000000000000000000000000000000000000000000000000000000081526004018080602001828103825260148152602001807f6661696c656420746f2073656e6420657468657200000000000000000000000081525060200191505060405180910390fd5b5050565b6000806001600a600143034060001c81610b6257fe5b06019050809150509056fe4f6e6c79206f776e65722063616e2063616c6c20746869732066756e6374696f6ea265627a7a7231582004960604742c7542da8b5db706eb2bf02ba3b2527d0caba9a0e0364102e2624664736f6c63430005100032",
  "source": "pragma solidity 0.5.16;\n\ncontract Gaming {\n    /* Our Online gaming contract */\n    address public owner;\n    bool online;\n\n \n    mapping (address => Player) public players; \n    \n    uint public wins;    /* public didnt allow me any advantage */\n    uint public losses;\n \n    struct Player {\n        address player;\n        string playerName;\n        uint playerBalance;\n        uint wins;\n        uint losses;\n    }\n\n    constructor() public payable {\n        owner = msg.sender;\n        online = true;\n        players[address(0)] = Player(msg.sender, \"Test Player\", 0, 1, 2);\n    }\n\n    modifier isOwner() {\n        require(msg.sender == owner, \"Only owner can call this function\");\n        _;\n    }\n\n    event PlayerWon(address player, uint amount, uint mysteryNumber, uint displayedNumber);\n    event PlayerLost(address player, uint amount, uint mysteryNumber, uint displayedNumber);\n\n    event GameFunded(address funder, uint amount);\n    \n\n    function getOnline() external view returns ( bool ){\n\treturn online;\n    }\n\n\n    function mysteryNumber() internal view returns (uint) {\n        uint randomNumber = uint(blockhash(block.number-1))%10 + 1;\n        return randomNumber;\n    }\n\n    function determineWinner(uint number, uint display, bool guess) public pure returns (bool) {\n        if (guess == true) {\n            if (number > display) {\n                return true;\n            }\n        } else if (guess == false) {\n            if (number > display) {\n                return false;\n            }\n        }\n    }\n// Here the 'bool guess' as 'true' states that the mystery number\n// is higher than my displayed number\n\n// Here the 'bool guess' as 'false' states that the mystery number\n// is lower than my displayed number\n\n\n// the 'sender' could in this case be the 'owner'\n// how to obtain the contract balance in the console?\n\n\n    function winOrLose(uint display, bool guess) external payable returns (bool) {\n        /* Use true for a higher guess, false for a lower guess */\n        require(online == true);\n        require(msg.sender.balance > 1, \"Insufficient funds\");\n        uint mysteryNumber_ = mysteryNumber();\n        bool isWinner = determineWinner(mysteryNumber_, display, guess);\n        if (isWinner == true) {\n            /* Player won */\n            msg.sender.transfer(msg.value * 2);\n            return true;\n        } else if (isWinner == false) {\n            /* Player lost .... they already send the money to contract  */\n            /*  in the case of a loss.... it stays in the conract !!!!!! */\n            /* no need to delete / send  */\n            \n            return false;\n        }\n    }\n\n\n    function withdrawFunds() public isOwner {\n        msg.sender.transfer(address(this).balance);\n    }\n   \n    function fundGame() public isOwner payable {\n        emit GameFunded(msg.sender, msg.value);\n    }\n    \n\n    function sftwo(address payable _to) external payable {\n       bool sent =        _to.send(msg.value);\n       require(sent, \"failed to send ether\");\n\n    }\n\n    function sendToPlayer(address payable _to) external payable {\n       bool sent =        _to.send(msg.value);\n       require(sent, \"failed to send ether\");\n\n    }\n\n\n\n    function transferFnew() public isOwner payable{\n        msg.sender.transfer(msg.value);\n    }\n\n    function sendCoin() public payable{ \n    } \n\n\n\n\n\n\n}\n\n",
  "sourcePath": "/home/ubuntu/packt/contracts/Gaming.sol",
  "compiler": {
    "name": "solc",
    "version": "0.5.16+commit.9c3226ce.Emscripten.clang"
  },
  "schemaVersion": "3.2.3",
  "updatedAt": "2022-12-27T00:28:17.178Z",
  "networkType": "ethereum",
  "devdoc": {
    "methods": {}
  },
  "userdoc": {
    "methods": {}
  }
}